:100000006F00E03413000000130000001300000034
:100010001300000013000000130000001300000094
:100020001300000013000000130000001300000084
:08003000130000007300100032
:100038006FF09FFC000000006F0000166F000016B4
:1000480000000000000000000000000000000000A8
:100058000000000000000000000000000000000098
:100068006F002029000000006F00C0280000000079
:100078006F0060286F0040286F0020286F0000285C
:100088006F00E0276F00C0276F00A0276F00802750
:100098006F0060276F0040276F0020276F00002740
:1000A8006F00E0266F00C0266F00A0266F00802634
:1000B8006F0060266F0040266F00202600000000B9
:1000C8000000000000000000000000006F00002594
:1000D8006F00E0246F00C0246F00A0246F0080240C
:1000E8006F0060246F0040246F0020246F000024FC
:1000F8006F00E0236F00C0236F00A0236F008023F0
:100108006F0060236F0040236F0020236F000023DF
:100118006F00E0226F00C0226F00A0226F008022D3
:1001280000000000000000000000000000000000C7
:080138000000000000000000BF
:10014000397101436EC619A0397141536AC866CA34
:1001500062CC5ECE19A0397101535AD056D252D416
:100160004ED64AD826DA22DC06DE3301614082828E
:1001700041114AC026C222C406C68282B24D410144
:10018000024D924C224CB24B4101024B924A224A00
:10019000B2494101024992442244B2404101828065
:1001A0007300203001A0EFF2BFFC411185451145DD
:1001B000C524C1473EC63714014085471305048056
:1001C0002312F1004C008D473EC413040480DD2A45
:1001D000F92C0546854522857D241305401FED2C0D
:1001E00022850146854545241305401FF524D5B7D2
:1001F000B71702409843B706FFF84111136717007D
:1002000098C3D84337060200758FD8C39843B70602
:10021000F7FEFD16758F98C39843B706FCFFFD16D1
:10022000758F98C3D843B70681FFFD16758FD8C365
:1002300037079F0098C702C402C69843C166558F0E
:1002400098C3B7160240130700509C42F18F3EC678
:10025000A24785073EC4B24781E7A247E397E7FE7E
:10026000B71702409C431397E7006354070885477C
:100270003EC632478547631CF706B72702409843BE
:10028000B706C1FFFD161367070198C39843719B1A
:1002900098C398431367270098C3B7170240D84301
:1002A000D8C3D843D8C3D84313670740D8C3D8436B
:1002B000758FD8C3D843B7061D00558FD8C3984350
:1002C000B7060001558F98C3984393166700E3DD86
:1002D00006FED843B7160240719BD8C3D8431367B4
:1002E0002700D8C32147DC42B18BE39EE7FE4101E2
:1002F000828002C6BDBF01A001A001A001A001A093
:1003000001A001A001A001A001A001A001A001A0E5
:1003100001A001A001A001A001A001A001A001A0D5
:1003200001A001A001A001A001A001A001A001A0C5
:1003300001A001A001A001A001A001A001A001A0B5
:1003400001A001A001A001A001A001A001A09701AE
:1003500000209381214B175100201301A1CA1305DE
:100360008050970500209385E5C91386818063FA44
:10037000C5008322050023A0550011059105E3EA7D
:10038000C5FE138581809385C1806377B5002320E6
:1003900005001105E36DB5FE9302800873A00230DD
:1003A00097020000938282C993E212007390523048
:1003B000EFF01FE497020000938222DF7390123463
:1003C000730020309C4513F7070113F8F70001C7AD
:1003D000D8413368E80083D5050013F7F50F39C31A
:1003E00018418146854E3D4F930F80029302800451
:1003F000214E3396DE00B3F8C500631116039398BF
:10040000260033131F011343F3FF3377E300B318C0
:10041000180133E7E800639FF70550C98506E39AA2
:10042000C6FD18C11307F00F6375B7045441214688
:10043000854E3D4F930F800293028004414EB39846
:10044000CE0033F715016392E80213172600011757
:100450003313EF001343F3FFB376D3003317E800F1
:10046000D98E639DF701232A15010506E319C6FD00
:1004700054C18280E39457FA10C94DB7E39757FEF1
:1004800023281501DDB719C20CC982804CC98280AE
:1004900099C5371702401C4F5D8D08CF8280B71772
:1004A0000240984F1345F5FF798D88CF8280B707BA
:1004B000002083A7070037177A0013070720B3D758
:1004C000E70293F7F70F2385F1801307803EB38788
:1004D000E7022394F1808280B7F700E023A00700B1
:1004E00003D7818023820700A382070023830700AC
:1004F0003305A702A3830700054798C337F700E039
:080500005C43E37FF5FE8280FD
:0805080000A24A0400000000FB
:00000001FF
